{
  "contractName": "CallerContract",
  "abi": [
    {
      "anonymous": false,
      "inputs": [
        {
          "indexed": true,
          "internalType": "address",
          "name": "previousOwner",
          "type": "address"
        },
        {
          "indexed": true,
          "internalType": "address",
          "name": "newOwner",
          "type": "address"
        }
      ],
      "name": "OwnershipTransferred",
      "type": "event"
    },
    {
      "anonymous": false,
      "inputs": [
        {
          "indexed": false,
          "internalType": "uint256",
          "name": "ethPrice",
          "type": "uint256"
        },
        {
          "indexed": false,
          "internalType": "uint256",
          "name": "id",
          "type": "uint256"
        }
      ],
      "name": "PriceUpdatedEvent",
      "type": "event"
    },
    {
      "anonymous": false,
      "inputs": [
        {
          "indexed": false,
          "internalType": "uint256",
          "name": "id",
          "type": "uint256"
        }
      ],
      "name": "ReceivedNewRequestIdEvent",
      "type": "event"
    },
    {
      "anonymous": false,
      "inputs": [
        {
          "indexed": false,
          "internalType": "address",
          "name": "oracleAddress",
          "type": "address"
        }
      ],
      "name": "newOracleAddressEvent",
      "type": "event"
    },
    {
      "inputs": [],
      "name": "owner",
      "outputs": [
        {
          "internalType": "address",
          "name": "",
          "type": "address"
        }
      ],
      "stateMutability": "view",
      "type": "function",
      "constant": true
    },
    {
      "inputs": [],
      "name": "renounceOwnership",
      "outputs": [],
      "stateMutability": "nonpayable",
      "type": "function"
    },
    {
      "inputs": [
        {
          "internalType": "address",
          "name": "newOwner",
          "type": "address"
        }
      ],
      "name": "transferOwnership",
      "outputs": [],
      "stateMutability": "nonpayable",
      "type": "function"
    },
    {
      "inputs": [
        {
          "internalType": "address",
          "name": "_oracleInstanceAddress",
          "type": "address"
        }
      ],
      "name": "setOracleInstanceAddress",
      "outputs": [],
      "stateMutability": "nonpayable",
      "type": "function"
    },
    {
      "inputs": [],
      "name": "updateEthPrice",
      "outputs": [],
      "stateMutability": "nonpayable",
      "type": "function"
    },
    {
      "inputs": [
        {
          "internalType": "uint256",
          "name": "_ethPrice",
          "type": "uint256"
        },
        {
          "internalType": "uint256",
          "name": "_id",
          "type": "uint256"
        }
      ],
      "name": "callback",
      "outputs": [],
      "stateMutability": "nonpayable",
      "type": "function"
    }
  ],
  "bytecode": "0x608060405234801561001057600080fd5b5061002d61002261003260201b60201c565b61003a60201b60201c565b6100fe565b600033905090565b60008060009054906101000a900473ffffffffffffffffffffffffffffffffffffffff169050816000806101000a81548173ffffffffffffffffffffffffffffffffffffffff021916908373ffffffffffffffffffffffffffffffffffffffff1602179055508173ffffffffffffffffffffffffffffffffffffffff168173ffffffffffffffffffffffffffffffffffffffff167f8be0079c531659141344cd1fd0a4f28419497f9722a3daafe3b4186f6b6457e060405160405180910390a35050565b610a828061010d6000396000f3fe608060405234801561001057600080fd5b50600436106100625760003560e01c806323c7e4a214610067578063715018a6146100715780638da5cb5b1461007b578063b5d73ba414610099578063e9e17a9e146100b5578063f2fde38b146100d1575b600080fd5b61006f6100ed565b005b6100796101ea565b005b6100836101fe565b6040516100909190610695565b60405180910390f35b6100b360048036038101906100ae91906106eb565b610227565b005b6100cf60048036038101906100ca9190610757565b61037e565b005b6100eb60048036038101906100e69190610757565b610486565b005b6000600260009054906101000a900473ffffffffffffffffffffffffffffffffffffffff1673ffffffffffffffffffffffffffffffffffffffff166330c0b9ec6040518163ffffffff1660e01b81526004016020604051808303816000875af115801561015e573d6000803e3d6000fd5b505050506040513d601f19601f820116820180604052508101906101829190610799565b905060016004600083815260200190815260200160002060006101000a81548160ff0219169083151502179055507f3ed150819af981e387450beb90ec379b8b322150dbb299d492b108c59a623e4b816040516101df91906107d5565b60405180910390a150565b6101f261050a565b6101fc6000610588565b565b60008060009054906101000a900473ffffffffffffffffffffffffffffffffffffffff16905090565b600360009054906101000a900473ffffffffffffffffffffffffffffffffffffffff1673ffffffffffffffffffffffffffffffffffffffff163373ffffffffffffffffffffffffffffffffffffffff16146102b7576040517f08c379a00000000000000000000000000000000000000000000000000000000081526004016102ae90610873565b60405180910390fd5b6004600082815260200190815260200160002060009054906101000a900460ff16610317576040517f08c379a000000000000000000000000000000000000000000000000000000000815260040161030e90610905565b60405180910390fd5b816001819055506004600082815260200190815260200160002060006101000a81549060ff02191690557f6b69e4f2aedf7e65a79ecaf16e8869b2b99c87e341f2c51286bfd4a7fc3b99698282604051610372929190610925565b60405180910390a15050565b61038661050a565b80600360006101000a81548173ffffffffffffffffffffffffffffffffffffffff021916908373ffffffffffffffffffffffffffffffffffffffff160217905550600360009054906101000a900473ffffffffffffffffffffffffffffffffffffffff16600260006101000a81548173ffffffffffffffffffffffffffffffffffffffff021916908373ffffffffffffffffffffffffffffffffffffffff1602179055507f441e3b056b114797955165bd03bb8393fc1658a713f09225de4745a8d068bf7d600360009054906101000a900473ffffffffffffffffffffffffffffffffffffffff1660405161047b9190610695565b60405180910390a150565b61048e61050a565b600073ffffffffffffffffffffffffffffffffffffffff168173ffffffffffffffffffffffffffffffffffffffff1614156104fe576040517f08c379a00000000000000000000000000000000000000000000000000000000081526004016104f5906109c0565b60405180910390fd5b61050781610588565b50565b61051261064c565b73ffffffffffffffffffffffffffffffffffffffff166105306101fe565b73ffffffffffffffffffffffffffffffffffffffff1614610586576040517f08c379a000000000000000000000000000000000000000000000000000000000815260040161057d90610a2c565b60405180910390fd5b565b60008060009054906101000a900473ffffffffffffffffffffffffffffffffffffffff169050816000806101000a81548173ffffffffffffffffffffffffffffffffffffffff021916908373ffffffffffffffffffffffffffffffffffffffff1602179055508173ffffffffffffffffffffffffffffffffffffffff168173ffffffffffffffffffffffffffffffffffffffff167f8be0079c531659141344cd1fd0a4f28419497f9722a3daafe3b4186f6b6457e060405160405180910390a35050565b600033905090565b600073ffffffffffffffffffffffffffffffffffffffff82169050919050565b600061067f82610654565b9050919050565b61068f81610674565b82525050565b60006020820190506106aa6000830184610686565b92915050565b600080fd5b6000819050919050565b6106c8816106b5565b81146106d357600080fd5b50565b6000813590506106e5816106bf565b92915050565b60008060408385031215610702576107016106b0565b5b6000610710858286016106d6565b9250506020610721858286016106d6565b9150509250929050565b61073481610674565b811461073f57600080fd5b50565b6000813590506107518161072b565b92915050565b60006020828403121561076d5761076c6106b0565b5b600061077b84828501610742565b91505092915050565b600081519050610793816106bf565b92915050565b6000602082840312156107af576107ae6106b0565b5b60006107bd84828501610784565b91505092915050565b6107cf816106b5565b82525050565b60006020820190506107ea60008301846107c6565b92915050565b600082825260208201905092915050565b7f596f7520617265206e6f7420617574686f72697a656420746f2063616c6c207460008201527f6869732066756e6374696f6e2e00000000000000000000000000000000000000602082015250565b600061085d602d836107f0565b915061086882610801565b604082019050919050565b6000602082019050818103600083015261088c81610850565b9050919050565b7f546869732072657175657374206973206e6f7420696e206d792070656e64696e60008201527f67206c6973742e00000000000000000000000000000000000000000000000000602082015250565b60006108ef6027836107f0565b91506108fa82610893565b604082019050919050565b6000602082019050818103600083015261091e816108e2565b9050919050565b600060408201905061093a60008301856107c6565b61094760208301846107c6565b9392505050565b7f4f776e61626c653a206e6577206f776e657220697320746865207a65726f206160008201527f6464726573730000000000000000000000000000000000000000000000000000602082015250565b60006109aa6026836107f0565b91506109b58261094e565b604082019050919050565b600060208201905081810360008301526109d98161099d565b9050919050565b7f4f776e61626c653a2063616c6c6572206973206e6f7420746865206f776e6572600082015250565b6000610a166020836107f0565b9150610a21826109e0565b602082019050919050565b60006020820190508181036000830152610a4581610a09565b905091905056fea26469706673582212209172d6a45a32cfb6e8493bd3b87d19912c4b3f9027c32ce93cab3baef85a248f64736f6c634300080b0033",
  "immutableReferences": {},
  "source": "pragma solidity >=0.8.0 <0.9.0;\r\n\r\nimport \"./EthPriceOracleInterface.sol\";\r\nimport \"@openzeppelin/contracts/access/Ownable.sol\";\r\ncontract CallerContract is Ownable {\r\n  uint256 private ethPrice;\r\n  EthPriceOracleInterface private oracleInstance;\r\n  address private oracleAddress;\r\n  mapping(uint256=>bool) myRequests;\r\n  event newOracleAddressEvent(address oracleAddress);\r\n  event ReceivedNewRequestIdEvent(uint256 id);\r\n  event PriceUpdatedEvent(uint256 ethPrice, uint256 id);\r\n  function setOracleInstanceAddress (address _oracleInstanceAddress) public onlyOwner {\r\n    oracleAddress = _oracleInstanceAddress;\r\n    oracleInstance = EthPriceOracleInterface(oracleAddress);\r\n    emit newOracleAddressEvent(oracleAddress);\r\n  }\r\n  function updateEthPrice() public {\r\n    uint256 id = oracleInstance.getLatestEthPrice();\r\n    myRequests[id] = true;\r\n    emit ReceivedNewRequestIdEvent(id);\r\n  }\r\n  function callback(uint256 _ethPrice, uint256 _id) public onlyOracle {\r\n    require(myRequests[_id], \"This request is not in my pending list.\");\r\n    ethPrice = _ethPrice;\r\n    delete myRequests[_id];\r\n    emit PriceUpdatedEvent(_ethPrice, _id);\r\n  }\r\n  modifier onlyOracle() {\r\n    require(msg.sender == oracleAddress, \"You are not authorized to call this function.\");\r\n    _;\r\n  }\r\n}",
  "sourcePath": "/mnt/c/pr0/blockchain-projects/building_an_oracle/caller/contracts/CallerContract.sol",
  "compiler": {
    "name": "solc",
    "version": "0.8.11+commit.d7f03943.Emscripten.clang"
  },
  "schemaVersion": "3.4.4",
  "updatedAt": "2022-08-26T00:43:22.350Z",
  "networkType": "ethereum",
  "devdoc": {
    "kind": "dev",
    "methods": {
      "owner()": {
        "details": "Returns the address of the current owner."
      },
      "renounceOwnership()": {
        "details": "Leaves the contract without owner. It will not be possible to call `onlyOwner` functions anymore. Can only be called by the current owner. NOTE: Renouncing ownership will leave the contract without an owner, thereby removing any functionality that is only available to the owner."
      },
      "transferOwnership(address)": {
        "details": "Transfers ownership of the contract to a new account (`newOwner`). Can only be called by the current owner."
      }
    },
    "version": 1
  },
  "userdoc": {
    "kind": "user",
    "methods": {},
    "version": 1
  }
}