{
  "contractName": "CallerContract",
  "abi": [
    {
      "anonymous": false,
      "inputs": [
        {
          "indexed": true,
          "internalType": "address",
          "name": "previousOwner",
          "type": "address"
        },
        {
          "indexed": true,
          "internalType": "address",
          "name": "newOwner",
          "type": "address"
        }
      ],
      "name": "OwnershipTransferred",
      "type": "event"
    },
    {
      "anonymous": false,
      "inputs": [
        {
          "indexed": false,
          "internalType": "uint256",
          "name": "ethPrice",
          "type": "uint256"
        },
        {
          "indexed": false,
          "internalType": "uint256",
          "name": "id",
          "type": "uint256"
        }
      ],
      "name": "PriceUpdatedEvent",
      "type": "event"
    },
    {
      "anonymous": false,
      "inputs": [
        {
          "indexed": false,
          "internalType": "uint256",
          "name": "id",
          "type": "uint256"
        }
      ],
      "name": "ReceivedNewRequestIdEvent",
      "type": "event"
    },
    {
      "anonymous": false,
      "inputs": [
        {
          "indexed": false,
          "internalType": "address",
          "name": "oracleAddress",
          "type": "address"
        }
      ],
      "name": "newOracleAddressEvent",
      "type": "event"
    },
    {
      "inputs": [],
      "name": "owner",
      "outputs": [
        {
          "internalType": "address",
          "name": "",
          "type": "address"
        }
      ],
      "stateMutability": "view",
      "type": "function",
      "constant": true
    },
    {
      "inputs": [],
      "name": "renounceOwnership",
      "outputs": [],
      "stateMutability": "nonpayable",
      "type": "function"
    },
    {
      "inputs": [
        {
          "internalType": "address",
          "name": "newOwner",
          "type": "address"
        }
      ],
      "name": "transferOwnership",
      "outputs": [],
      "stateMutability": "nonpayable",
      "type": "function"
    },
    {
      "inputs": [
        {
          "internalType": "address",
          "name": "_oracleInstanceAddress",
          "type": "address"
        }
      ],
      "name": "setOracleInstanceAddress",
      "outputs": [],
      "stateMutability": "nonpayable",
      "type": "function"
    },
    {
      "inputs": [],
      "name": "getCurrentEthPrice",
      "outputs": [
        {
          "internalType": "uint256",
          "name": "",
          "type": "uint256"
        }
      ],
      "stateMutability": "view",
      "type": "function",
      "constant": true
    },
    {
      "inputs": [],
      "name": "updateEthPrice",
      "outputs": [],
      "stateMutability": "nonpayable",
      "type": "function"
    },
    {
      "inputs": [
        {
          "internalType": "uint256",
          "name": "_ethPrice",
          "type": "uint256"
        },
        {
          "internalType": "uint256",
          "name": "_id",
          "type": "uint256"
        }
      ],
      "name": "callback",
      "outputs": [],
      "stateMutability": "nonpayable",
      "type": "function"
    }
  ],
  "bytecode": "0x608060405234801561001057600080fd5b5061002d61002261003260201b60201c565b61003a60201b60201c565b6100fe565b600033905090565b60008060009054906101000a900473ffffffffffffffffffffffffffffffffffffffff169050816000806101000a81548173ffffffffffffffffffffffffffffffffffffffff021916908373ffffffffffffffffffffffffffffffffffffffff1602179055508173ffffffffffffffffffffffffffffffffffffffff168173ffffffffffffffffffffffffffffffffffffffff167f8be0079c531659141344cd1fd0a4f28419497f9722a3daafe3b4186f6b6457e060405160405180910390a35050565b610ac58061010d6000396000f3fe608060405234801561001057600080fd5b506004361061007d5760003560e01c80639125009d1161005b5780639125009d146100b4578063b5d73ba4146100d2578063e9e17a9e146100ee578063f2fde38b1461010a5761007d565b806323c7e4a214610082578063715018a61461008c5780638da5cb5b14610096575b600080fd5b61008a610126565b005b610094610223565b005b61009e610237565b6040516100ab91906106d8565b60405180910390f35b6100bc610260565b6040516100c9919061070c565b60405180910390f35b6100ec60048036038101906100e79190610758565b61026a565b005b610108600480360381019061010391906107c4565b6103c1565b005b610124600480360381019061011f91906107c4565b6104c9565b005b6000600260009054906101000a900473ffffffffffffffffffffffffffffffffffffffff1673ffffffffffffffffffffffffffffffffffffffff166330c0b9ec6040518163ffffffff1660e01b81526004016020604051808303816000875af1158015610197573d6000803e3d6000fd5b505050506040513d601f19601f820116820180604052508101906101bb9190610806565b905060016004600083815260200190815260200160002060006101000a81548160ff0219169083151502179055507f3ed150819af981e387450beb90ec379b8b322150dbb299d492b108c59a623e4b81604051610218919061070c565b60405180910390a150565b61022b61054d565b61023560006105cb565b565b60008060009054906101000a900473ffffffffffffffffffffffffffffffffffffffff16905090565b6000600154905090565b600360009054906101000a900473ffffffffffffffffffffffffffffffffffffffff1673ffffffffffffffffffffffffffffffffffffffff163373ffffffffffffffffffffffffffffffffffffffff16146102fa576040517f08c379a00000000000000000000000000000000000000000000000000000000081526004016102f1906108b6565b60405180910390fd5b6004600082815260200190815260200160002060009054906101000a900460ff1661035a576040517f08c379a000000000000000000000000000000000000000000000000000000000815260040161035190610948565b60405180910390fd5b816001819055506004600082815260200190815260200160002060006101000a81549060ff02191690557f6b69e4f2aedf7e65a79ecaf16e8869b2b99c87e341f2c51286bfd4a7fc3b996982826040516103b5929190610968565b60405180910390a15050565b6103c961054d565b80600360006101000a81548173ffffffffffffffffffffffffffffffffffffffff021916908373ffffffffffffffffffffffffffffffffffffffff160217905550600360009054906101000a900473ffffffffffffffffffffffffffffffffffffffff16600260006101000a81548173ffffffffffffffffffffffffffffffffffffffff021916908373ffffffffffffffffffffffffffffffffffffffff1602179055507f441e3b056b114797955165bd03bb8393fc1658a713f09225de4745a8d068bf7d600360009054906101000a900473ffffffffffffffffffffffffffffffffffffffff166040516104be91906106d8565b60405180910390a150565b6104d161054d565b600073ffffffffffffffffffffffffffffffffffffffff168173ffffffffffffffffffffffffffffffffffffffff161415610541576040517f08c379a000000000000000000000000000000000000000000000000000000000815260040161053890610a03565b60405180910390fd5b61054a816105cb565b50565b61055561068f565b73ffffffffffffffffffffffffffffffffffffffff16610573610237565b73ffffffffffffffffffffffffffffffffffffffff16146105c9576040517f08c379a00000000000000000000000000000000000000000000000000000000081526004016105c090610a6f565b60405180910390fd5b565b60008060009054906101000a900473ffffffffffffffffffffffffffffffffffffffff169050816000806101000a81548173ffffffffffffffffffffffffffffffffffffffff021916908373ffffffffffffffffffffffffffffffffffffffff1602179055508173ffffffffffffffffffffffffffffffffffffffff168173ffffffffffffffffffffffffffffffffffffffff167f8be0079c531659141344cd1fd0a4f28419497f9722a3daafe3b4186f6b6457e060405160405180910390a35050565b600033905090565b600073ffffffffffffffffffffffffffffffffffffffff82169050919050565b60006106c282610697565b9050919050565b6106d2816106b7565b82525050565b60006020820190506106ed60008301846106c9565b92915050565b6000819050919050565b610706816106f3565b82525050565b600060208201905061072160008301846106fd565b92915050565b600080fd5b610735816106f3565b811461074057600080fd5b50565b6000813590506107528161072c565b92915050565b6000806040838503121561076f5761076e610727565b5b600061077d85828601610743565b925050602061078e85828601610743565b9150509250929050565b6107a1816106b7565b81146107ac57600080fd5b50565b6000813590506107be81610798565b92915050565b6000602082840312156107da576107d9610727565b5b60006107e8848285016107af565b91505092915050565b6000815190506108008161072c565b92915050565b60006020828403121561081c5761081b610727565b5b600061082a848285016107f1565b91505092915050565b600082825260208201905092915050565b7f596f7520617265206e6f7420617574686f72697a656420746f2063616c6c207460008201527f6869732066756e6374696f6e2e00000000000000000000000000000000000000602082015250565b60006108a0602d83610833565b91506108ab82610844565b604082019050919050565b600060208201905081810360008301526108cf81610893565b9050919050565b7f546869732072657175657374206973206e6f7420696e206d792070656e64696e60008201527f67206c6973742e00000000000000000000000000000000000000000000000000602082015250565b6000610932602783610833565b915061093d826108d6565b604082019050919050565b6000602082019050818103600083015261096181610925565b9050919050565b600060408201905061097d60008301856106fd565b61098a60208301846106fd565b9392505050565b7f4f776e61626c653a206e6577206f776e657220697320746865207a65726f206160008201527f6464726573730000000000000000000000000000000000000000000000000000602082015250565b60006109ed602683610833565b91506109f882610991565b604082019050919050565b60006020820190508181036000830152610a1c816109e0565b9050919050565b7f4f776e61626c653a2063616c6c6572206973206e6f7420746865206f776e6572600082015250565b6000610a59602083610833565b9150610a6482610a23565b602082019050919050565b60006020820190508181036000830152610a8881610a4c565b905091905056fea264697066735822122009fd48eef13bb398b163af5ebce011a25bc106c78e389002e15ea6225d94f81764736f6c634300080b0033",
  "immutableReferences": {},
  "source": "pragma solidity >=0.8.0 <0.9.0;\r\n\r\nimport \"./EthPriceOracleInterface.sol\";\r\nimport \"@openzeppelin/contracts/access/Ownable.sol\";\r\ncontract CallerContract is Ownable {\r\n  uint256 private ethPrice;\r\n  EthPriceOracleInterface private oracleInstance;\r\n  address private oracleAddress;\r\n  mapping(uint256=>bool) myRequests;\r\n  event newOracleAddressEvent(address oracleAddress);\r\n  event ReceivedNewRequestIdEvent(uint256 id);\r\n  event PriceUpdatedEvent(uint256 ethPrice, uint256 id);\r\n  function setOracleInstanceAddress (address _oracleInstanceAddress) public onlyOwner {\r\n    oracleAddress = _oracleInstanceAddress;\r\n    oracleInstance = EthPriceOracleInterface(oracleAddress);\r\n    emit newOracleAddressEvent(oracleAddress);\r\n  }\r\n\r\n  function getCurrentEthPrice() public view returns(uint256) {\r\n    return ethPrice;\r\n  }\r\n\r\n  function updateEthPrice() public {\r\n    uint256 id = oracleInstance.getLatestEthPrice();\r\n    myRequests[id] = true;\r\n    emit ReceivedNewRequestIdEvent(id);\r\n  }\r\n  function callback(uint256 _ethPrice, uint256 _id) public onlyOracle {\r\n    require(myRequests[_id], \"This request is not in my pending list.\");\r\n    ethPrice = _ethPrice;\r\n    delete myRequests[_id];\r\n    emit PriceUpdatedEvent(_ethPrice, _id);\r\n  }\r\n  modifier onlyOracle() {\r\n    require(msg.sender == oracleAddress, \"You are not authorized to call this function.\");\r\n    _;\r\n  }\r\n}",
  "sourcePath": "/mnt/c/pr0/blockchain-projects/building_an_oracle/caller/contracts/CallerContract.sol",
  "compiler": {
    "name": "solc",
    "version": "0.8.11+commit.d7f03943.Emscripten.clang"
  },
  "schemaVersion": "3.4.4",
  "updatedAt": "2022-08-31T23:56:05.465Z",
  "networkType": "ethereum",
  "devdoc": {
    "kind": "dev",
    "methods": {
      "owner()": {
        "details": "Returns the address of the current owner."
      },
      "renounceOwnership()": {
        "details": "Leaves the contract without owner. It will not be possible to call `onlyOwner` functions anymore. Can only be called by the current owner. NOTE: Renouncing ownership will leave the contract without an owner, thereby removing any functionality that is only available to the owner."
      },
      "transferOwnership(address)": {
        "details": "Transfers ownership of the contract to a new account (`newOwner`). Can only be called by the current owner."
      }
    },
    "version": 1
  },
  "userdoc": {
    "kind": "user",
    "methods": {},
    "version": 1
  }
}