{
  "contractName": "EthPriceOracle",
  "abi": [
    {
      "inputs": [],
      "stateMutability": "nonpayable",
      "type": "constructor"
    },
    {
      "anonymous": false,
      "inputs": [
        {
          "indexed": false,
          "internalType": "address",
          "name": "oracleAddress",
          "type": "address"
        }
      ],
      "name": "AddOracleEvent",
      "type": "event"
    },
    {
      "anonymous": false,
      "inputs": [
        {
          "indexed": false,
          "internalType": "address",
          "name": "callerAddress",
          "type": "address"
        },
        {
          "indexed": false,
          "internalType": "uint256",
          "name": "id",
          "type": "uint256"
        }
      ],
      "name": "GetLatestEthPriceEvent",
      "type": "event"
    },
    {
      "anonymous": false,
      "inputs": [
        {
          "indexed": false,
          "internalType": "address",
          "name": "oracleAddress",
          "type": "address"
        }
      ],
      "name": "RemoveOracleEvent",
      "type": "event"
    },
    {
      "anonymous": false,
      "inputs": [
        {
          "indexed": true,
          "internalType": "bytes32",
          "name": "role",
          "type": "bytes32"
        },
        {
          "indexed": true,
          "internalType": "bytes32",
          "name": "previousAdminRole",
          "type": "bytes32"
        },
        {
          "indexed": true,
          "internalType": "bytes32",
          "name": "newAdminRole",
          "type": "bytes32"
        }
      ],
      "name": "RoleAdminChanged",
      "type": "event"
    },
    {
      "anonymous": false,
      "inputs": [
        {
          "indexed": true,
          "internalType": "bytes32",
          "name": "role",
          "type": "bytes32"
        },
        {
          "indexed": true,
          "internalType": "address",
          "name": "account",
          "type": "address"
        },
        {
          "indexed": true,
          "internalType": "address",
          "name": "sender",
          "type": "address"
        }
      ],
      "name": "RoleGranted",
      "type": "event"
    },
    {
      "anonymous": false,
      "inputs": [
        {
          "indexed": true,
          "internalType": "bytes32",
          "name": "role",
          "type": "bytes32"
        },
        {
          "indexed": true,
          "internalType": "address",
          "name": "account",
          "type": "address"
        },
        {
          "indexed": true,
          "internalType": "address",
          "name": "sender",
          "type": "address"
        }
      ],
      "name": "RoleRevoked",
      "type": "event"
    },
    {
      "anonymous": false,
      "inputs": [
        {
          "indexed": false,
          "internalType": "uint256",
          "name": "ethPrice",
          "type": "uint256"
        },
        {
          "indexed": false,
          "internalType": "address",
          "name": "callerAddress",
          "type": "address"
        }
      ],
      "name": "SetLatestEthPriceEvent",
      "type": "event"
    },
    {
      "anonymous": false,
      "inputs": [
        {
          "indexed": false,
          "internalType": "uint256",
          "name": "threshold",
          "type": "uint256"
        }
      ],
      "name": "SetThresholdEvent",
      "type": "event"
    },
    {
      "inputs": [],
      "name": "DEFAULT_ADMIN_ROLE",
      "outputs": [
        {
          "internalType": "bytes32",
          "name": "",
          "type": "bytes32"
        }
      ],
      "stateMutability": "view",
      "type": "function",
      "constant": true
    },
    {
      "inputs": [],
      "name": "ORACLES",
      "outputs": [
        {
          "internalType": "bytes32",
          "name": "",
          "type": "bytes32"
        }
      ],
      "stateMutability": "view",
      "type": "function",
      "constant": true
    },
    {
      "inputs": [],
      "name": "OWNERS",
      "outputs": [
        {
          "internalType": "bytes32",
          "name": "",
          "type": "bytes32"
        }
      ],
      "stateMutability": "view",
      "type": "function",
      "constant": true
    },
    {
      "inputs": [
        {
          "internalType": "bytes32",
          "name": "role",
          "type": "bytes32"
        }
      ],
      "name": "getRoleAdmin",
      "outputs": [
        {
          "internalType": "bytes32",
          "name": "",
          "type": "bytes32"
        }
      ],
      "stateMutability": "view",
      "type": "function",
      "constant": true
    },
    {
      "inputs": [
        {
          "internalType": "bytes32",
          "name": "role",
          "type": "bytes32"
        },
        {
          "internalType": "address",
          "name": "account",
          "type": "address"
        }
      ],
      "name": "grantRole",
      "outputs": [],
      "stateMutability": "nonpayable",
      "type": "function"
    },
    {
      "inputs": [
        {
          "internalType": "bytes32",
          "name": "role",
          "type": "bytes32"
        },
        {
          "internalType": "address",
          "name": "account",
          "type": "address"
        }
      ],
      "name": "hasRole",
      "outputs": [
        {
          "internalType": "bool",
          "name": "",
          "type": "bool"
        }
      ],
      "stateMutability": "view",
      "type": "function",
      "constant": true
    },
    {
      "inputs": [
        {
          "internalType": "bytes32",
          "name": "role",
          "type": "bytes32"
        },
        {
          "internalType": "address",
          "name": "account",
          "type": "address"
        }
      ],
      "name": "renounceRole",
      "outputs": [],
      "stateMutability": "nonpayable",
      "type": "function"
    },
    {
      "inputs": [
        {
          "internalType": "bytes32",
          "name": "role",
          "type": "bytes32"
        },
        {
          "internalType": "address",
          "name": "account",
          "type": "address"
        }
      ],
      "name": "revokeRole",
      "outputs": [],
      "stateMutability": "nonpayable",
      "type": "function"
    },
    {
      "inputs": [
        {
          "internalType": "bytes4",
          "name": "interfaceId",
          "type": "bytes4"
        }
      ],
      "name": "supportsInterface",
      "outputs": [
        {
          "internalType": "bool",
          "name": "",
          "type": "bool"
        }
      ],
      "stateMutability": "view",
      "type": "function",
      "constant": true
    },
    {
      "inputs": [
        {
          "internalType": "address",
          "name": "_owner",
          "type": "address"
        }
      ],
      "name": "addOwner",
      "outputs": [],
      "stateMutability": "nonpayable",
      "type": "function"
    },
    {
      "inputs": [
        {
          "internalType": "address",
          "name": "_owner",
          "type": "address"
        }
      ],
      "name": "removeOwner",
      "outputs": [],
      "stateMutability": "nonpayable",
      "type": "function"
    },
    {
      "inputs": [
        {
          "internalType": "address",
          "name": "_oracle",
          "type": "address"
        }
      ],
      "name": "addOracle",
      "outputs": [],
      "stateMutability": "nonpayable",
      "type": "function"
    },
    {
      "inputs": [
        {
          "internalType": "address",
          "name": "_oracle",
          "type": "address"
        }
      ],
      "name": "removeOracle",
      "outputs": [],
      "stateMutability": "nonpayable",
      "type": "function"
    },
    {
      "inputs": [
        {
          "internalType": "uint256",
          "name": "_threshold",
          "type": "uint256"
        }
      ],
      "name": "setThreshold",
      "outputs": [],
      "stateMutability": "nonpayable",
      "type": "function"
    },
    {
      "inputs": [],
      "name": "getLatestEthPrice",
      "outputs": [
        {
          "internalType": "uint256",
          "name": "",
          "type": "uint256"
        }
      ],
      "stateMutability": "nonpayable",
      "type": "function"
    },
    {
      "inputs": [
        {
          "internalType": "uint256",
          "name": "_ethPrice",
          "type": "uint256"
        },
        {
          "internalType": "address",
          "name": "_callerAddress",
          "type": "address"
        },
        {
          "internalType": "uint256",
          "name": "_id",
          "type": "uint256"
        }
      ],
      "name": "setLatestEthPrice",
      "outputs": [],
      "stateMutability": "nonpayable",
      "type": "function"
    }
  ],
  "bytecode": "0x608060405260006001556103e8600255600060035560006004553480156200002657600080fd5b506200003c6000801b336200007460201b60201c565b6200006e7f442e70e83397770c9f1520820e5555e76d9d4f0a415d9c72548c8daac6944e1f336200007460201b60201c565b620001d7565b6200008682826200016560201b60201c565b6200016157600160008084815260200190815260200160002060000160008373ffffffffffffffffffffffffffffffffffffffff1673ffffffffffffffffffffffffffffffffffffffff16815260200190815260200160002060006101000a81548160ff02191690831515021790555062000106620001cf60201b60201c565b73ffffffffffffffffffffffffffffffffffffffff168173ffffffffffffffffffffffffffffffffffffffff16837f2f8788117e7eff1d82e926ec794901d17c78024a50270940304540a733656f0d60405160405180910390a45b5050565b600080600084815260200190815260200160002060000160008373ffffffffffffffffffffffffffffffffffffffff1673ffffffffffffffffffffffffffffffffffffffff16815260200190815260200160002060009054906101000a900460ff16905092915050565b600033905090565b611da280620001e76000396000f3fe608060405234801561001057600080fd5b50600436106101005760003560e01c806391d1485411610097578063cf642f1f11610066578063cf642f1f14610299578063d547741f146102b5578063df5dd1a5146102d1578063fdc85fc4146102ed57610100565b806391d1485414610211578063960bfe0414610241578063a217fddf1461025d578063c68c10911461027b57610100565b80632f2ff15d116100d35780632f2ff15d1461019f57806330c0b9ec146101bb57806336568abe146101d95780637065cb48146101f557610100565b806301ffc9a714610105578063173825d914610135578063248a9ca3146101515780632a9078d614610181575b600080fd5b61011f600480360381019061011a9190611274565b610309565b60405161012c91906112bc565b60405180910390f35b61014f600480360381019061014a9190611335565b610383565b005b61016b60048036038101906101669190611398565b6103b1565b60405161017891906113d4565b60405180910390f35b6101896103d0565b60405161019691906113d4565b60405180910390f35b6101b960048036038101906101b491906113ef565b6103f4565b005b6101c3610415565b6040516101d09190611448565b60405180910390f35b6101f360048036038101906101ee91906113ef565b6104df565b005b61020f600480360381019061020a9190611335565b610562565b005b61022b600480360381019061022691906113ef565b610590565b60405161023891906112bc565b60405180910390f35b61025b6004803603810190610256919061148f565b6105fa565b005b610265610668565b60405161027291906113d4565b60405180910390f35b61028361066f565b60405161029091906113d4565b60405180910390f35b6102b360048036038101906102ae91906114bc565b610693565b005b6102cf60048036038101906102ca91906113ef565b6109d9565b005b6102eb60048036038101906102e69190611335565b6109fa565b005b61030760048036038101906103029190611335565b610b0f565b005b60007f7965db0b000000000000000000000000000000000000000000000000000000007bffffffffffffffffffffffffffffffffffffffffffffffffffffffff1916827bffffffffffffffffffffffffffffffffffffffffffffffffffffffff1916148061037c575061037b82610c68565b5b9050919050565b7f442e70e83397770c9f1520820e5555e76d9d4f0a415d9c72548c8daac6944e1f6103ad81610cd2565b5050565b6000806000838152602001908152602001600020600101549050919050565b7f442e70e83397770c9f1520820e5555e76d9d4f0a415d9c72548c8daac6944e1f81565b6103fd826103b1565b61040681610cd2565b6104108383610ce6565b505050565b600061042c60018054610dc690919063ffffffff16565b6001819055506000600254423360015460405160200161044e93929190611578565b6040516020818303038152906040528051906020012060001c61047191906115e4565b905060016005600083815260200190815260200160002060006101000a81548160ff0219169083151502179055507f3d50a0c24e97813f35595d2f1f37dbf421d5e97f37abd4e222853e9b9c82c8d533826040516104d0929190611624565b60405180910390a18091505090565b6104e7610ddc565b73ffffffffffffffffffffffffffffffffffffffff168173ffffffffffffffffffffffffffffffffffffffff1614610554576040517f08c379a000000000000000000000000000000000000000000000000000000000815260040161054b906116d0565b60405180910390fd5b61055e8282610de4565b5050565b7f442e70e83397770c9f1520820e5555e76d9d4f0a415d9c72548c8daac6944e1f61058c81610cd2565b5050565b600080600084815260200190815260200160002060000160008373ffffffffffffffffffffffffffffffffffffffff1673ffffffffffffffffffffffffffffffffffffffff16815260200190815260200160002060009054906101000a900460ff16905092915050565b7f442e70e83397770c9f1520820e5555e76d9d4f0a415d9c72548c8daac6944e1f61062481610cd2565b816004819055507f0f4f9dbb729778e455b47da600927c51653092f52835705824cd1db65a29ed0d60045460405161065c9190611448565b60405180910390a15050565b6000801b81565b7fcd84ef2ca36db89bf10980ad745e905927b5d2a0649a4cc3e39f363eb89c264881565b7fcd84ef2ca36db89bf10980ad745e905927b5d2a0649a4cc3e39f363eb89c26486106bd81610cd2565b6005600083815260200190815260200160002060009054906101000a900460ff1661071d576040517f08c379a000000000000000000000000000000000000000000000000000000000815260040161071490611762565b60405180910390fd5b6107256111ca565b60405180606001604052803373ffffffffffffffffffffffffffffffffffffffff1681526020018573ffffffffffffffffffffffffffffffffffffffff1681526020018681525090506006600084815260200190815260200160002081908060018154018082558091505060019003906000526020600020906003020160009091909190915060008201518160000160006101000a81548173ffffffffffffffffffffffffffffffffffffffff021916908373ffffffffffffffffffffffffffffffffffffffff16021790555060208201518160010160006101000a81548173ffffffffffffffffffffffffffffffffffffffff021916908373ffffffffffffffffffffffffffffffffffffffff1602179055506040820151816002015550506000600660008581526020019081526020016000208054905090506004548114156109d1576000805b60066000878152602001908152602001600020805490508110156108ea576108d56006600088815260200190815260200160002082815481106108b4576108b3611782565b5b90600052602060002090600302016002015483610dc690919063ffffffff16565b915080806108e2906117e0565b91505061086e565b506108fe8282610ec590919063ffffffff16565b90506005600086815260200190815260200160002060006101000a81549060ff021916905560008690508073ffffffffffffffffffffffffffffffffffffffff1663b5d73ba483886040518363ffffffff1660e01b8152600401610963929190611829565b600060405180830381600087803b15801561097d57600080fd5b505af1158015610991573d6000803e3d6000fd5b505050507f91b860381268a473101de3379abbb70abf7ea6c9d1735cf58b9816479ff3b72782886040516109c6929190611852565b60405180910390a150505b505050505050565b6109e2826103b1565b6109eb81610cd2565b6109f58383610de4565b505050565b7f442e70e83397770c9f1520820e5555e76d9d4f0a415d9c72548c8daac6944e1f610a2481610cd2565b610a4e7fcd84ef2ca36db89bf10980ad745e905927b5d2a0649a4cc3e39f363eb89c264883610590565b15610a8e576040517f08c379a0000000000000000000000000000000000000000000000000000000008152600401610a85906118c7565b60405180910390fd5b610ab87fcd84ef2ca36db89bf10980ad745e905927b5d2a0649a4cc3e39f363eb89c2648836103f4565b610ace6001600354610dc690919063ffffffff16565b6003819055507fed46b7525d27f2470ee188e1d85693a6a8b59537b58701408b2f53588e63d1db82604051610b0391906118e7565b60405180910390a15050565b7f442e70e83397770c9f1520820e5555e76d9d4f0a415d9c72548c8daac6944e1f610b3981610cd2565b610b637fcd84ef2ca36db89bf10980ad745e905927b5d2a0649a4cc3e39f363eb89c264883610590565b610ba2576040517f08c379a0000000000000000000000000000000000000000000000000000000008152600401610b999061194e565b60405180910390fd5b600160035411610be7576040517f08c379a0000000000000000000000000000000000000000000000000000000008152600401610bde906119ba565b60405180910390fd5b610c117fcd84ef2ca36db89bf10980ad745e905927b5d2a0649a4cc3e39f363eb89c2648836109d9565b610c276001600354610edb90919063ffffffff16565b6003819055507f8d35b822981364028d4bb40af1edcfd97f4e186c8ccf97bafcc9adc68bd58c6d82604051610c5c91906118e7565b60405180910390a15050565b60007f01ffc9a7000000000000000000000000000000000000000000000000000000007bffffffffffffffffffffffffffffffffffffffffffffffffffffffff1916827bffffffffffffffffffffffffffffffffffffffffffffffffffffffff1916149050919050565b610ce381610cde610ddc565b610ef1565b50565b610cf08282610590565b610dc257600160008084815260200190815260200160002060000160008373ffffffffffffffffffffffffffffffffffffffff1673ffffffffffffffffffffffffffffffffffffffff16815260200190815260200160002060006101000a81548160ff021916908315150217905550610d67610ddc565b73ffffffffffffffffffffffffffffffffffffffff168173ffffffffffffffffffffffffffffffffffffffff16837f2f8788117e7eff1d82e926ec794901d17c78024a50270940304540a733656f0d60405160405180910390a45b5050565b60008183610dd491906119da565b905092915050565b600033905090565b610dee8282610590565b15610ec157600080600084815260200190815260200160002060000160008373ffffffffffffffffffffffffffffffffffffffff1673ffffffffffffffffffffffffffffffffffffffff16815260200190815260200160002060006101000a81548160ff021916908315150217905550610e66610ddc565b73ffffffffffffffffffffffffffffffffffffffff168173ffffffffffffffffffffffffffffffffffffffff16837ff6391f5c32d9c69d2a47ea670b442974b53935d1edc7fd64eb21e047a839171b60405160405180910390a45b5050565b60008183610ed39190611a30565b905092915050565b60008183610ee99190611a61565b905092915050565b610efb8282610590565b610f8a57610f208173ffffffffffffffffffffffffffffffffffffffff166014610f8e565b610f2e8360001c6020610f8e565b604051602001610f3f929190611ba7565b6040516020818303038152906040526040517f08c379a0000000000000000000000000000000000000000000000000000000008152600401610f819190611c2b565b60405180910390fd5b5050565b606060006002836002610fa19190611c4d565b610fab91906119da565b67ffffffffffffffff811115610fc457610fc3611ca7565b5b6040519080825280601f01601f191660200182016040528015610ff65781602001600182028036833780820191505090505b5090507f30000000000000000000000000000000000000000000000000000000000000008160008151811061102e5761102d611782565b5b60200101907effffffffffffffffffffffffffffffffffffffffffffffffffffffffffffff1916908160001a9053507f78000000000000000000000000000000000000000000000000000000000000008160018151811061109257611091611782565b5b60200101907effffffffffffffffffffffffffffffffffffffffffffffffffffffffffffff1916908160001a905350600060018460026110d29190611c4d565b6110dc91906119da565b90505b600181111561117c577f3031323334353637383961626364656600000000000000000000000000000000600f86166010811061111e5761111d611782565b5b1a60f81b82828151811061113557611134611782565b5b60200101907effffffffffffffffffffffffffffffffffffffffffffffffffffffffffffff1916908160001a905350600485901c94508061117590611cd6565b90506110df565b50600084146111c0576040517f08c379a00000000000000000000000000000000000000000000000000000000081526004016111b790611d4c565b60405180910390fd5b8091505092915050565b6040518060600160405280600073ffffffffffffffffffffffffffffffffffffffff168152602001600073ffffffffffffffffffffffffffffffffffffffff168152602001600081525090565b600080fd5b60007fffffffff0000000000000000000000000000000000000000000000000000000082169050919050565b6112518161121c565b811461125c57600080fd5b50565b60008135905061126e81611248565b92915050565b60006020828403121561128a57611289611217565b5b60006112988482850161125f565b91505092915050565b60008115159050919050565b6112b6816112a1565b82525050565b60006020820190506112d160008301846112ad565b92915050565b600073ffffffffffffffffffffffffffffffffffffffff82169050919050565b6000611302826112d7565b9050919050565b611312816112f7565b811461131d57600080fd5b50565b60008135905061132f81611309565b92915050565b60006020828403121561134b5761134a611217565b5b600061135984828501611320565b91505092915050565b6000819050919050565b61137581611362565b811461138057600080fd5b50565b6000813590506113928161136c565b92915050565b6000602082840312156113ae576113ad611217565b5b60006113bc84828501611383565b91505092915050565b6113ce81611362565b82525050565b60006020820190506113e960008301846113c5565b92915050565b6000806040838503121561140657611405611217565b5b600061141485828601611383565b925050602061142585828601611320565b9150509250929050565b6000819050919050565b6114428161142f565b82525050565b600060208201905061145d6000830184611439565b92915050565b61146c8161142f565b811461147757600080fd5b50565b60008135905061148981611463565b92915050565b6000602082840312156114a5576114a4611217565b5b60006114b38482850161147a565b91505092915050565b6000806000606084860312156114d5576114d4611217565b5b60006114e38682870161147a565b93505060206114f486828701611320565b92505060406115058682870161147a565b9150509250925092565b6000819050919050565b61152a6115258261142f565b61150f565b82525050565b60008160601b9050919050565b600061154882611530565b9050919050565b600061155a8261153d565b9050919050565b61157261156d826112f7565b61154f565b82525050565b60006115848286611519565b6020820191506115948285611561565b6014820191506115a48284611519565b602082019150819050949350505050565b7f4e487b7100000000000000000000000000000000000000000000000000000000600052601260045260246000fd5b60006115ef8261142f565b91506115fa8361142f565b92508261160a576116096115b5565b5b828206905092915050565b61161e816112f7565b82525050565b60006040820190506116396000830185611615565b6116466020830184611439565b9392505050565b600082825260208201905092915050565b7f416363657373436f6e74726f6c3a2063616e206f6e6c792072656e6f756e636560008201527f20726f6c657320666f722073656c660000000000000000000000000000000000602082015250565b60006116ba602f8361164d565b91506116c58261165e565b604082019050919050565b600060208201905081810360008301526116e9816116ad565b9050919050565b7f546869732072657175657374206973206e6f7420696e206d792070656e64696e60008201527f67206c6973742e00000000000000000000000000000000000000000000000000602082015250565b600061174c60278361164d565b9150611757826116f0565b604082019050919050565b6000602082019050818103600083015261177b8161173f565b9050919050565b7f4e487b7100000000000000000000000000000000000000000000000000000000600052603260045260246000fd5b7f4e487b7100000000000000000000000000000000000000000000000000000000600052601160045260246000fd5b60006117eb8261142f565b91507fffffffffffffffffffffffffffffffffffffffffffffffffffffffffffffffff82141561181e5761181d6117b1565b5b600182019050919050565b600060408201905061183e6000830185611439565b61184b6020830184611439565b9392505050565b60006040820190506118676000830185611439565b6118746020830184611615565b9392505050565b7f416c7261647920616e204f7261636c6521000000000000000000000000000000600082015250565b60006118b160118361164d565b91506118bc8261187b565b602082019050919050565b600060208201905081810360008301526118e0816118a4565b9050919050565b60006020820190506118fc6000830184611615565b92915050565b7f4e6f7420616e204f7261636c6500000000000000000000000000000000000000600082015250565b6000611938600d8361164d565b915061194382611902565b602082019050919050565b600060208201905081810360008301526119678161192b565b9050919050565b7f446f206e6f742072656d6f766520746865206c617374204f7261636c65000000600082015250565b60006119a4601d8361164d565b91506119af8261196e565b602082019050919050565b600060208201905081810360008301526119d381611997565b9050919050565b60006119e58261142f565b91506119f08361142f565b9250827fffffffffffffffffffffffffffffffffffffffffffffffffffffffffffffffff03821115611a2557611a246117b1565b5b828201905092915050565b6000611a3b8261142f565b9150611a468361142f565b925082611a5657611a556115b5565b5b828204905092915050565b6000611a6c8261142f565b9150611a778361142f565b925082821015611a8a57611a896117b1565b5b828203905092915050565b600081905092915050565b7f416363657373436f6e74726f6c3a206163636f756e7420000000000000000000600082015250565b6000611ad6601783611a95565b9150611ae182611aa0565b601782019050919050565b600081519050919050565b60005b83811015611b15578082015181840152602081019050611afa565b83811115611b24576000848401525b50505050565b6000611b3582611aec565b611b3f8185611a95565b9350611b4f818560208601611af7565b80840191505092915050565b7f206973206d697373696e6720726f6c6520000000000000000000000000000000600082015250565b6000611b91601183611a95565b9150611b9c82611b5b565b601182019050919050565b6000611bb282611ac9565b9150611bbe8285611b2a565b9150611bc982611b84565b9150611bd58284611b2a565b91508190509392505050565b6000601f19601f8301169050919050565b6000611bfd82611aec565b611c07818561164d565b9350611c17818560208601611af7565b611c2081611be1565b840191505092915050565b60006020820190508181036000830152611c458184611bf2565b905092915050565b6000611c588261142f565b9150611c638361142f565b9250817fffffffffffffffffffffffffffffffffffffffffffffffffffffffffffffffff0483118215151615611c9c57611c9b6117b1565b5b828202905092915050565b7f4e487b7100000000000000000000000000000000000000000000000000000000600052604160045260246000fd5b6000611ce18261142f565b91506000821415611cf557611cf46117b1565b5b600182039050919050565b7f537472696e67733a20686578206c656e67746820696e73756666696369656e74600082015250565b6000611d3660208361164d565b9150611d4182611d00565b602082019050919050565b60006020820190508181036000830152611d6581611d29565b905091905056fea264697066735822122085bc4985b1cc6a7282256dfc5407732b3f63453924b813e88312909b876aacf664736f6c634300080b0033",
  "immutableReferences": {},
  "source": "pragma solidity >=0.8.0 <0.9.0;\r\n\r\nimport \"@openzeppelin/contracts/access/AccessControl.sol\";\r\nimport \"@openzeppelin/contracts/utils/math/SafeMath.sol\";\r\nimport \"./CallerContractInterface.sol\";\r\ncontract EthPriceOracle is AccessControl{\r\n\r\n  using SafeMath for uint256;\r\n\r\n  // Create a new role identifier for the OWNERS role\r\n  bytes32 public constant OWNERS = keccak256(\"OWNERS\");\r\n\r\n  // Create a new role identifier for the ORACLES role\r\n  bytes32 public constant ORACLES = keccak256(\"ORACLES\");\r\n\r\n  uint private randNonce = 0;\r\n  uint private modulus = 1000;\r\n  uint private numOracles = 0;\r\n  uint private THRESHOLD = 0;\r\n\r\n  struct Response {\r\n    address oracleAddress;\r\n    address callerAddress;\r\n    uint ethPrice;\r\n  }\r\n\r\n  mapping(uint256 => bool) pendingRequests;\r\n  mapping(uint256 => Response[]) requestIdToResponse; // associate each request id to an array of structs containing oracleAddress, callerAddress, and ethPrice variables.\r\n\r\n  event GetLatestEthPriceEvent(address callerAddress, uint id);\r\n  event SetLatestEthPriceEvent(uint256 ethPrice, address callerAddress);\r\n  event AddOracleEvent(address oracleAddress);\r\n  event RemoveOracleEvent(address oracleAddress);\r\n  event SetThresholdEvent (uint threshold);\r\n\r\n  constructor() {\r\n    // Set the contract's creator as the Admin of all the Roles\r\n    _grantRole(DEFAULT_ADMIN_ROLE, msg.sender);\r\n    // Add the contract's creator to the OWNER's Role\r\n    _grantRole(OWNERS, msg.sender);\r\n  }\r\n\r\n  // Only Owners can add new Owners - The function needs at least 2/3 of the total owners' approvals to effectively add a new owner to the OWNERS role\r\n  function addOwner(address _owner) public onlyRole(OWNERS) {\r\n\r\n  }\r\n\r\n  // Only Owners can add new Owners - The function needs at least 2/3 of the total owners' approvals to effectively revoke an owner from the OWNERS role\r\n  function removeOwner(address _owner) public onlyRole(OWNERS) {\r\n\r\n  }\r\n\r\n  // Only OWNERS can grant the ORACLES role to an address - The function needs at least 2/3 of the total owners' approvals to effectively add a new oracle to the ORACLES role\r\n  function addOracle(address _oracle) public onlyRole(OWNERS) {\r\n    require(!hasRole(ORACLES, _oracle), \"Alrady an Oracle!\");\r\n    grantRole(ORACLES, _oracle);\r\n    numOracles = numOracles.add(1);\r\n    emit AddOracleEvent(_oracle);\r\n  }\r\n  // Only OWNERS can revoke the ORACLES role from an address - The function needs at least 2/3 of the total owners' approvals to effectively revoke an oracle from the ORACLES role\r\n  function removeOracle(address _oracle) public onlyRole(OWNERS) {\r\n    require(hasRole(ORACLES, _oracle), \"Not an Oracle\");\r\n    require(numOracles > 1, \"Do not remove the last Oracle\");\r\n    revokeRole(ORACLES, _oracle);\r\n    numOracles = numOracles.sub(1);\r\n    emit RemoveOracleEvent(_oracle);\r\n  }\r\n  // Set the THRESHOLD value to determine the minimum # of responses that are required to compute the ETH Price for an individual updateETHPrice request\r\n  // The function needs at least 2/3 of the total owners' approvals to effectively SET/UPDATE the THERSHOLD's value\r\n  function setThreshold (uint _threshold) public onlyRole(OWNERS){\r\n    THRESHOLD = _threshold;\r\n    emit SetThresholdEvent(THRESHOLD);\r\n  }\r\n  function getLatestEthPrice() public returns (uint256) {\r\n    randNonce = randNonce.add(1);\r\n    uint id = uint(keccak256(abi.encodePacked(block.timestamp, msg.sender, randNonce))) % modulus;\r\n    pendingRequests[id] = true;\r\n    emit GetLatestEthPriceEvent(msg.sender, id);\r\n    return id;\r\n  }\r\n  // Only addresses granted with the ORACLES role can update the ETH price\r\n  function setLatestEthPrice(uint256 _ethPrice, address _callerAddress, uint256 _id) public onlyRole(ORACLES) {\r\n    require(pendingRequests[_id], \"This request is not in my pending list.\");\r\n    Response memory resp; // Declare a new instance of the Response struct. will be filled in thex next step and later will be stored permanently in the Response[] for the specific _id in the requestIdToResponse mapping\r\n    resp = Response(msg.sender,_callerAddress,_ethPrice); // Initialize the Response instance with the corresponding information for this oracle's response\r\n    requestIdToResponse[_id].push(resp);  // Push resp to the array stored at requestIdToResponse[_id].\r\n    uint numResponses = requestIdToResponse[_id].length;  // The total # of Responses for a given _id request can be calculated by the length of the Response[] array for the given _id request\r\n    if(numResponses == THRESHOLD) {\r\n      // Calculate the average ETH Price based on the price stored in all the Responses for the given _id request\r\n      uint averageETHPrice = 0;\r\n      for (uint f = 0; f < requestIdToResponse[_id].length; f++) {\r\n        averageETHPrice = averageETHPrice.add(requestIdToResponse[_id][f].ethPrice);  // Sum all the individual ethPrices from all the single Response for a given _id request\r\n      }\r\n      averageETHPrice = averageETHPrice.div(numResponses);\r\n      delete pendingRequests[_id];\r\n      CallerContractInterface callerContractInstance;\r\n      callerContractInstance = CallerContractInterface(_callerAddress);\r\n      callerContractInstance.callback(averageETHPrice,_id);\r\n      emit SetLatestEthPriceEvent(averageETHPrice, _callerAddress);\r\n    }\r\n  }\r\n}\r\n",
  "sourcePath": "/mnt/c/pr0/blockchain-projects/building_an_oracle/oracle/contracts/EthPriceOracle.sol",
  "compiler": {
    "name": "solc",
    "version": "0.8.11+commit.d7f03943.Emscripten.clang"
  },
  "schemaVersion": "3.4.4",
  "updatedAt": "2022-09-01T05:23:27.974Z",
  "networkType": "ethereum",
  "devdoc": {
    "kind": "dev",
    "methods": {
      "getRoleAdmin(bytes32)": {
        "details": "Returns the admin role that controls `role`. See {grantRole} and {revokeRole}. To change a role's admin, use {_setRoleAdmin}."
      },
      "grantRole(bytes32,address)": {
        "details": "Grants `role` to `account`. If `account` had not been already granted `role`, emits a {RoleGranted} event. Requirements: - the caller must have ``role``'s admin role. May emit a {RoleGranted} event."
      },
      "hasRole(bytes32,address)": {
        "details": "Returns `true` if `account` has been granted `role`."
      },
      "renounceRole(bytes32,address)": {
        "details": "Revokes `role` from the calling account. Roles are often managed via {grantRole} and {revokeRole}: this function's purpose is to provide a mechanism for accounts to lose their privileges if they are compromised (such as when a trusted device is misplaced). If the calling account had been revoked `role`, emits a {RoleRevoked} event. Requirements: - the caller must be `account`. May emit a {RoleRevoked} event."
      },
      "revokeRole(bytes32,address)": {
        "details": "Revokes `role` from `account`. If `account` had been granted `role`, emits a {RoleRevoked} event. Requirements: - the caller must have ``role``'s admin role. May emit a {RoleRevoked} event."
      },
      "supportsInterface(bytes4)": {
        "details": "See {IERC165-supportsInterface}."
      }
    },
    "version": 1
  },
  "userdoc": {
    "kind": "user",
    "methods": {},
    "version": 1
  }
}