{
  "contractName": "EthPriceOracle",
  "abi": [
    {
      "anonymous": false,
      "inputs": [
        {
          "indexed": false,
          "internalType": "address",
          "name": "callerAddress",
          "type": "address"
        },
        {
          "indexed": false,
          "internalType": "uint256",
          "name": "id",
          "type": "uint256"
        }
      ],
      "name": "GetLatestEthPriceEvent",
      "type": "event"
    },
    {
      "anonymous": false,
      "inputs": [
        {
          "indexed": true,
          "internalType": "address",
          "name": "previousOwner",
          "type": "address"
        },
        {
          "indexed": true,
          "internalType": "address",
          "name": "newOwner",
          "type": "address"
        }
      ],
      "name": "OwnershipTransferred",
      "type": "event"
    },
    {
      "anonymous": false,
      "inputs": [
        {
          "indexed": false,
          "internalType": "uint256",
          "name": "ethPrice",
          "type": "uint256"
        },
        {
          "indexed": false,
          "internalType": "address",
          "name": "callerAddress",
          "type": "address"
        }
      ],
      "name": "SetLatestEthPriceEvent",
      "type": "event"
    },
    {
      "inputs": [],
      "name": "owner",
      "outputs": [
        {
          "internalType": "address",
          "name": "",
          "type": "address"
        }
      ],
      "stateMutability": "view",
      "type": "function",
      "constant": true
    },
    {
      "inputs": [],
      "name": "renounceOwnership",
      "outputs": [],
      "stateMutability": "nonpayable",
      "type": "function"
    },
    {
      "inputs": [
        {
          "internalType": "address",
          "name": "newOwner",
          "type": "address"
        }
      ],
      "name": "transferOwnership",
      "outputs": [],
      "stateMutability": "nonpayable",
      "type": "function"
    },
    {
      "inputs": [],
      "name": "getLatestEthPrice",
      "outputs": [
        {
          "internalType": "uint256",
          "name": "",
          "type": "uint256"
        }
      ],
      "stateMutability": "nonpayable",
      "type": "function"
    },
    {
      "inputs": [
        {
          "internalType": "uint256",
          "name": "_ethPrice",
          "type": "uint256"
        },
        {
          "internalType": "address",
          "name": "_callerAddress",
          "type": "address"
        },
        {
          "internalType": "uint256",
          "name": "_id",
          "type": "uint256"
        }
      ],
      "name": "setLatestEthPrice",
      "outputs": [],
      "stateMutability": "nonpayable",
      "type": "function"
    }
  ],
  "bytecode": "0x608060405260006001556103e860025534801561001b57600080fd5b5061003861002d61003d60201b60201c565b61004560201b60201c565b610109565b600033905090565b60008060009054906101000a900473ffffffffffffffffffffffffffffffffffffffff169050816000806101000a81548173ffffffffffffffffffffffffffffffffffffffff021916908373ffffffffffffffffffffffffffffffffffffffff1602179055508173ffffffffffffffffffffffffffffffffffffffff168173ffffffffffffffffffffffffffffffffffffffff167f8be0079c531659141344cd1fd0a4f28419497f9722a3daafe3b4186f6b6457e060405160405180910390a35050565b610a25806101186000396000f3fe608060405234801561001057600080fd5b50600436106100575760003560e01c806330c0b9ec1461005c578063715018a61461007a5780638da5cb5b14610084578063cf642f1f146100a2578063f2fde38b146100be575b600080fd5b6100646100da565b6040516100719190610501565b60405180910390f35b6100826101a1565b005b61008c6101b5565b604051610099919061055d565b60405180910390f35b6100bc60048036038101906100b791906105d5565b6101de565b005b6100d860048036038101906100d39190610628565b61031a565b005b6000600160008154809291906100ef90610684565b91905055506000600254423360015460405160200161011093929190610736565b6040516020818303038152906040528051906020012060001c61013391906107a2565b905060016003600083815260200190815260200160002060006101000a81548160ff0219169083151502179055507f3d50a0c24e97813f35595d2f1f37dbf421d5e97f37abd4e222853e9b9c82c8d533826040516101929291906107d3565b60405180910390a18091505090565b6101a961039e565b6101b3600061041c565b565b60008060009054906101000a900473ffffffffffffffffffffffffffffffffffffffff16905090565b6101e661039e565b6003600082815260200190815260200160002060009054906101000a900460ff16610246576040517f08c379a000000000000000000000000000000000000000000000000000000000815260040161023d9061087f565b60405180910390fd5b6003600082815260200190815260200160002060006101000a81549060ff021916905560008290508073ffffffffffffffffffffffffffffffffffffffff1663b5d73ba485846040518363ffffffff1660e01b81526004016102a992919061089f565b600060405180830381600087803b1580156102c357600080fd5b505af11580156102d7573d6000803e3d6000fd5b505050507f91b860381268a473101de3379abbb70abf7ea6c9d1735cf58b9816479ff3b727848460405161030c9291906108c8565b60405180910390a150505050565b61032261039e565b600073ffffffffffffffffffffffffffffffffffffffff168173ffffffffffffffffffffffffffffffffffffffff161415610392576040517f08c379a000000000000000000000000000000000000000000000000000000000815260040161038990610963565b60405180910390fd5b61039b8161041c565b50565b6103a66104e0565b73ffffffffffffffffffffffffffffffffffffffff166103c46101b5565b73ffffffffffffffffffffffffffffffffffffffff161461041a576040517f08c379a0000000000000000000000000000000000000000000000000000000008152600401610411906109cf565b60405180910390fd5b565b60008060009054906101000a900473ffffffffffffffffffffffffffffffffffffffff169050816000806101000a81548173ffffffffffffffffffffffffffffffffffffffff021916908373ffffffffffffffffffffffffffffffffffffffff1602179055508173ffffffffffffffffffffffffffffffffffffffff168173ffffffffffffffffffffffffffffffffffffffff167f8be0079c531659141344cd1fd0a4f28419497f9722a3daafe3b4186f6b6457e060405160405180910390a35050565b600033905090565b6000819050919050565b6104fb816104e8565b82525050565b600060208201905061051660008301846104f2565b92915050565b600073ffffffffffffffffffffffffffffffffffffffff82169050919050565b60006105478261051c565b9050919050565b6105578161053c565b82525050565b6000602082019050610572600083018461054e565b92915050565b600080fd5b610586816104e8565b811461059157600080fd5b50565b6000813590506105a38161057d565b92915050565b6105b28161053c565b81146105bd57600080fd5b50565b6000813590506105cf816105a9565b92915050565b6000806000606084860312156105ee576105ed610578565b5b60006105fc86828701610594565b935050602061060d868287016105c0565b925050604061061e86828701610594565b9150509250925092565b60006020828403121561063e5761063d610578565b5b600061064c848285016105c0565b91505092915050565b7f4e487b7100000000000000000000000000000000000000000000000000000000600052601160045260246000fd5b600061068f826104e8565b91507fffffffffffffffffffffffffffffffffffffffffffffffffffffffffffffffff8214156106c2576106c1610655565b5b600182019050919050565b6000819050919050565b6106e86106e3826104e8565b6106cd565b82525050565b60008160601b9050919050565b6000610706826106ee565b9050919050565b6000610718826106fb565b9050919050565b61073061072b8261053c565b61070d565b82525050565b600061074282866106d7565b602082019150610752828561071f565b60148201915061076282846106d7565b602082019150819050949350505050565b7f4e487b7100000000000000000000000000000000000000000000000000000000600052601260045260246000fd5b60006107ad826104e8565b91506107b8836104e8565b9250826107c8576107c7610773565b5b828206905092915050565b60006040820190506107e8600083018561054e565b6107f560208301846104f2565b9392505050565b600082825260208201905092915050565b7f546869732072657175657374206973206e6f7420696e206d792070656e64696e60008201527f67206c6973742e00000000000000000000000000000000000000000000000000602082015250565b60006108696027836107fc565b91506108748261080d565b604082019050919050565b600060208201905081810360008301526108988161085c565b9050919050565b60006040820190506108b460008301856104f2565b6108c160208301846104f2565b9392505050565b60006040820190506108dd60008301856104f2565b6108ea602083018461054e565b9392505050565b7f4f776e61626c653a206e6577206f776e657220697320746865207a65726f206160008201527f6464726573730000000000000000000000000000000000000000000000000000602082015250565b600061094d6026836107fc565b9150610958826108f1565b604082019050919050565b6000602082019050818103600083015261097c81610940565b9050919050565b7f4f776e61626c653a2063616c6c6572206973206e6f7420746865206f776e6572600082015250565b60006109b96020836107fc565b91506109c482610983565b602082019050919050565b600060208201905081810360008301526109e8816109ac565b905091905056fea264697066735822122089d7c904f3479f4a54418e3f8ee0cd8ff82674d72a825abc2611ad3e6efed37e64736f6c634300080b0033",
  "immutableReferences": {},
  "source": "pragma solidity >=0.8.0 <0.9.0;\r\n\r\nimport \"@openzeppelin/contracts/access/Ownable.sol\";\r\nimport \"./CallerContractInterface.sol\";\r\ncontract EthPriceOracle is Ownable {\r\n  uint private randNonce = 0;\r\n  uint private modulus = 1000;\r\n  mapping(uint256=>bool) pendingRequests;\r\n  event GetLatestEthPriceEvent(address callerAddress, uint id);\r\n  event SetLatestEthPriceEvent(uint256 ethPrice, address callerAddress);\r\n  function getLatestEthPrice() public returns (uint256) {\r\n    randNonce++;\r\n    uint id = uint(keccak256(abi.encodePacked(block.timestamp, msg.sender, randNonce))) % modulus;\r\n    pendingRequests[id] = true;\r\n    emit GetLatestEthPriceEvent(msg.sender, id);\r\n    return id;\r\n  }\r\n  function setLatestEthPrice(uint256 _ethPrice, address _callerAddress, uint256 _id) public onlyOwner {\r\n    require(pendingRequests[_id], \"This request is not in my pending list.\");\r\n    delete pendingRequests[_id];\r\n    CallerContractInterface callerContractInstance;\r\n    callerContractInstance = CallerContractInterface(_callerAddress);\r\n    callerContractInstance.callback(_ethPrice,_id);\r\n    emit SetLatestEthPriceEvent(_ethPrice, _callerAddress);\r\n  }\r\n}\r\n",
  "sourcePath": "/mnt/c/pr0/blockchain-projects/building_an_oracle/oracle/contracts/EthPriceOracle.sol",
  "compiler": {
    "name": "solc",
    "version": "0.8.11+commit.d7f03943.Emscripten.clang"
  },
  "schemaVersion": "3.4.4",
  "updatedAt": "2022-08-26T00:42:57.709Z",
  "networkType": "ethereum",
  "devdoc": {
    "kind": "dev",
    "methods": {
      "owner()": {
        "details": "Returns the address of the current owner."
      },
      "renounceOwnership()": {
        "details": "Leaves the contract without owner. It will not be possible to call `onlyOwner` functions anymore. Can only be called by the current owner. NOTE: Renouncing ownership will leave the contract without an owner, thereby removing any functionality that is only available to the owner."
      },
      "transferOwnership(address)": {
        "details": "Transfers ownership of the contract to a new account (`newOwner`). Can only be called by the current owner."
      }
    },
    "version": 1
  },
  "userdoc": {
    "kind": "user",
    "methods": {},
    "version": 1
  }
}